:100000000EEF00F00000000000EF00F00000000024
:0A0010000000000000000000F3D71C
:10001C00926A936A946A956A966A896A8A6A8B6A02
:10002C008C6A8D6A3D0E0B6EE10E0C6E3F0E0D6EE2
:10003C000D2EFED70C2EFCD70B2EFAD7000000008D
:10004C00FF0E896EFF0E8A6EFF0E8B6EFF0E8C6E8E
:10005C00FF0E8D6E3D0E0B6EE10E0C6E3F0E0D6E97
:10006C000D2EFED70C2EFCD70B2EFAD7000000005D
:04007C00D4D7FFD7FF
:020000040030CA
:0E000000210E3F1EFF8381FF0FC00FE00F4057
:00000001FF
